{
  "transactions": [
    {
      "hash": null,
      "transactionType": "CREATE",
      "contractName": "RandomERC721",
      "contractAddress": "0x5FbDB2315678afecb367f032d93F642f64180aa3",
      "function": null,
      "arguments": null,
      "transaction": {
        "type": "0x00",
        "from": "0xf39fd6e51aad88f6f4ce6ab8827279cfffb92266",
        "gas": "0x184afa",
        "value": "0x0",
        "data": "0x60806040523480156200001157600080fd5b506040518060400160405280600c81526020016b52616e646f6d4e465437323160a01b815250604051806040016040528060048152602001631493919560e21b815250816000908162000065919062000524565b50600162000074828262000524565b50505060005b600a811015620000a557620000903382620000ac565b806200009c81620005f0565b9150506200007a565b5062000618565b6001600160a01b038216620000dc57604051633250574960e11b8152600060048201526024015b60405180910390fd5b6000620000eb8383836200011f565b90506001600160a01b038116156200011a576040516339e3563760e11b815260006004820152602401620000d3565b505050565b6000828152600260205260408120546001600160a01b03908116908316156200014f576200014f8184866200021e565b6001600160a01b038116156200018f576200016e600085818062000288565b6001600160a01b038116600090815260036020526040902080546000190190555b6001600160a01b03851615620001bf576001600160a01b0385166000908152600360205260409020805460010190555b60008481526002602052604080822080546001600160a01b0319166001600160a01b0389811691821790925591518793918516917fddf252ad1be2c89b69c2b068fc378daa952ba7f163c4a11628f55a4df523b3ef91a4949350505050565b6200022b838383620003b6565b6200011a576001600160a01b0383166200025c57604051637e27328960e01b815260048101829052602401620000d3565b60405163177e802f60e01b81526001600160a01b038316600482015260248101829052604401620000d3565b80806200029d57506001600160a01b03821615155b1562000386576000620002b0846200043f565b90506001600160a01b03831615801590620002dd5750826001600160a01b0316816001600160a01b031614155b80156200031057506001600160a01b0380821660009081526005602090815260408083209387168352929052205460ff16155b156200033b5760405163a9fbf51f60e01b81526001600160a01b0384166004820152602401620000d3565b8115620003845783856001600160a01b0316826001600160a01b03167f8c5be1e5ebec7d5bd14f71427d1e84f3dd0314c0f7b2291e5b200ac8c7c3b92560405160405180910390a45b505b5050600090815260046020526040902080546001600160a01b0319166001600160a01b0392909216919091179055565b60006001600160a01b03831615801590620004375750826001600160a01b0316846001600160a01b031614806200041257506001600160a01b0380851660009081526005602090815260408083209387168352929052205460ff165b806200043757506000828152600460205260409020546001600160a01b038481169116145b949350505050565b6000818152600260205260408120546001600160a01b0316806200047a57604051637e27328960e01b815260048101849052602401620000d3565b92915050565b634e487b7160e01b600052604160045260246000fd5b600181811c90821680620004ab57607f821691505b602082108103620004cc57634e487b7160e01b600052602260045260246000fd5b50919050565b601f8211156200011a57600081815260208120601f850160051c81016020861015620004fb5750805b601f850160051c820191505b818110156200051c5782815560010162000507565b505050505050565b81516001600160401b0381111562000540576200054062000480565b620005588162000551845462000496565b84620004d2565b602080601f831160018114620005905760008415620005775750858301515b600019600386901b1c1916600185901b1785556200051c565b600085815260208120601f198616915b82811015620005c157888601518255948401946001909101908401620005a0565b5085821015620005e05787850151600019600388901b60f8161c191681555b5050505050600190811b01905550565b6000600182016200061157634e487b7160e01b600052601160045260246000fd5b5060010190565b610f0880620006286000396000f3fe608060405234801561001057600080fd5b50600436106100cf5760003560e01c80636352211e1161008c578063a22cb46511610066578063a22cb465146101b3578063b88d4fde146101c6578063c87b56dd146101d9578063e985e9c5146101ec57600080fd5b80636352211e1461017757806370a082311461018a57806395d89b41146101ab57600080fd5b806301ffc9a7146100d457806306fdde03146100fc578063081812fc14610111578063095ea7b31461013c57806323b872dd1461015157806342842e0e14610164575b600080fd5b6100e76100e2366004610b78565b6101ff565b60405190151581526020015b60405180910390f35b610104610251565b6040516100f39190610be5565b61012461011f366004610bf8565b6102e3565b6040516001600160a01b0390911681526020016100f3565b61014f61014a366004610c2d565b61030b565b005b61014f61015f366004610c57565b61031a565b61014f610172366004610c57565b6103aa565b610124610185366004610bf8565b6103ca565b61019d610198366004610c93565b610403565b6040519081526020016100f3565b61010461044b565b61014f6101c1366004610cae565b61045a565b61014f6101d4366004610d00565b610465565b6101046101e7366004610bf8565b61047c565b6100e76101fa366004610ddc565b6104f0565b60006001600160e01b031982166380ac58cd60e01b148061023057506001600160e01b03198216635b5e139f60e01b145b8061024b57506301ffc9a760e01b6001600160e01b03198316145b92915050565b60606000805461026090610e0f565b80601f016020809104026020016040519081016040528092919081815260200182805461028c90610e0f565b80156102d95780601f106102ae576101008083540402835291602001916102d9565b820191906000526020600020905b8154815290600101906020018083116102bc57829003601f168201915b5050505050905090565b60006102ee8261051e565b6000828152600460205260409020546001600160a01b031661024b565b610316828233610559565b5050565b6001600160a01b03821661034957604051633250574960e11b8152600060048201526024015b60405180910390fd5b6000610356838333610566565b9050836001600160a01b0316816001600160a01b0316146103a4576040516364283d7b60e01b81526001600160a01b0380861660048301526024820184905282166044820152606401610340565b50505050565b6103c583838360405180602001604052806000815250610465565b505050565b6000818152600260205260408120546001600160a01b03168061024b57604051637e27328960e01b815260048101849052602401610340565b60006001600160a01b03821661042f576040516322718ad960e21b815260006004820152602401610340565b506001600160a01b031660009081526003602052604090205490565b60606001805461026090610e0f565b61031633838361065f565b61047084848461031a565b6103a4848484846106fe565b60606104878261051e565b600061049e60408051602081019091526000815290565b905060008151116104be57604051806020016040528060008152506104e9565b806104c884610827565b6040516020016104d9929190610e49565b6040516020818303038152906040525b9392505050565b6001600160a01b03918216600090815260056020908152604080832093909416825291909152205460ff1690565b6000818152600260205260409020546001600160a01b031661055657604051637e27328960e01b815260048101829052602401610340565b50565b6103c583838360016108ba565b6000828152600260205260408120546001600160a01b0390811690831615610593576105938184866109c0565b6001600160a01b038116156105d1576105b06000856000806108ba565b6001600160a01b038116600090815260036020526040902080546000190190555b6001600160a01b03851615610600576001600160a01b0385166000908152600360205260409020805460010190555b60008481526002602052604080822080546001600160a01b0319166001600160a01b0389811691821790925591518793918516917fddf252ad1be2c89b69c2b068fc378daa952ba7f163c4a11628f55a4df523b3ef91a4949350505050565b6001600160a01b03821661069157604051630b61174360e31b81526001600160a01b0383166004820152602401610340565b6001600160a01b03838116600081815260056020908152604080832094871680845294825291829020805460ff191686151590811790915591519182527f17307eab39ab6107e8899845ad3d59bd9653f200f220920489ca2b5937696c31910160405180910390a3505050565b6001600160a01b0383163b156103a457604051630a85bd0160e11b81526001600160a01b0384169063150b7a0290610740903390889087908790600401610e78565b6020604051808303816000875af192505050801561077b575060408051601f3d908101601f1916820190925261077891810190610eb5565b60015b6107e4573d8080156107a9576040519150601f19603f3d011682016040523d82523d6000602084013e6107ae565b606091505b5080516000036107dc57604051633250574960e11b81526001600160a01b0385166004820152602401610340565b805181602001fd5b6001600160e01b03198116630a85bd0160e11b1461082057604051633250574960e11b81526001600160a01b0385166004820152602401610340565b5050505050565b6060600061083483610a24565b600101905060008167ffffffffffffffff81111561085457610854610cea565b6040519080825280601f01601f19166020018201604052801561087e576020820181803683370190505b5090508181016020015b600019016f181899199a1a9b1b9c1cb0b131b232b360811b600a86061a8153600a850494508461088857509392505050565b80806108ce57506001600160a01b03821615155b156109905760006108de846103ca565b90506001600160a01b0383161580159061090a5750826001600160a01b0316816001600160a01b031614155b801561091d575061091b81846104f0565b155b156109465760405163a9fbf51f60e01b81526001600160a01b0384166004820152602401610340565b811561098e5783856001600160a01b0316826001600160a01b03167f8c5be1e5ebec7d5bd14f71427d1e84f3dd0314c0f7b2291e5b200ac8c7c3b92560405160405180910390a45b505b5050600090815260046020526040902080546001600160a01b0319166001600160a01b0392909216919091179055565b6109cb838383610afc565b6103c5576001600160a01b0383166109f957604051637e27328960e01b815260048101829052602401610340565b60405163177e802f60e01b81526001600160a01b038316600482015260248101829052604401610340565b60008072184f03e93ff9f4daa797ed6e38ed64bf6a1f0160401b8310610a635772184f03e93ff9f4daa797ed6e38ed64bf6a1f0160401b830492506040015b6d04ee2d6d415b85acef81000000008310610a8f576d04ee2d6d415b85acef8100000000830492506020015b662386f26fc100008310610aad57662386f26fc10000830492506010015b6305f5e1008310610ac5576305f5e100830492506008015b6127108310610ad957612710830492506004015b60648310610aeb576064830492506002015b600a831061024b5760010192915050565b60006001600160a01b03831615801590610b5a5750826001600160a01b0316846001600160a01b03161480610b365750610b3684846104f0565b80610b5a57506000828152600460205260409020546001600160a01b038481169116145b949350505050565b6001600160e01b03198116811461055657600080fd5b600060208284031215610b8a57600080fd5b81356104e981610b62565b60005b83811015610bb0578181015183820152602001610b98565b50506000910152565b60008151808452610bd1816020860160208601610b95565b601f01601f19169290920160200192915050565b6020815260006104e96020830184610bb9565b600060208284031215610c0a57600080fd5b5035919050565b80356001600160a01b0381168114610c2857600080fd5b919050565b60008060408385031215610c4057600080fd5b610c4983610c11565b946020939093013593505050565b600080600060608486031215610c6c57600080fd5b610c7584610c11565b9250610c8360208501610c11565b9150604084013590509250925092565b600060208284031215610ca557600080fd5b6104e982610c11565b60008060408385031215610cc157600080fd5b610cca83610c11565b915060208301358015158114610cdf57600080fd5b809150509250929050565b634e487b7160e01b600052604160045260246000fd5b60008060008060808587031215610d1657600080fd5b610d1f85610c11565b9350610d2d60208601610c11565b925060408501359150606085013567ffffffffffffffff80821115610d5157600080fd5b818701915087601f830112610d6557600080fd5b813581811115610d7757610d77610cea565b604051601f8201601f19908116603f01168101908382118183101715610d9f57610d9f610cea565b816040528281528a6020848701011115610db857600080fd5b82602086016020830137600060208483010152809550505050505092959194509250565b60008060408385031215610def57600080fd5b610df883610c11565b9150610e0660208401610c11565b90509250929050565b600181811c90821680610e2357607f821691505b602082108103610e4357634e487b7160e01b600052602260045260246000fd5b50919050565b60008351610e5b818460208801610b95565b835190830190610e6f818360208801610b95565b01949350505050565b6001600160a01b0385811682528416602082015260408101839052608060608201819052600090610eab90830184610bb9565b9695505050505050565b600060208284031215610ec757600080fd5b81516104e981610b6256fea2646970667358221220dd85c2b75ec3b232254664454511da9c5ee6f2fecdaaad37b232d0f9d126169e64736f6c63430008140033",
        "nonce": "0x0"
      },
      "additionalContracts": [],
      "isFixedGasLimit": false
    },
    {
      "hash": null,
      "transactionType": "CREATE",
      "contractName": "ObjectMarketplace",
      "contractAddress": "0xe7f1725E7734CE288F8367e1Bb143E90bb3F0512",
      "function": null,
      "arguments": [
        "100"
      ],
      "transaction": {
        "type": "0x00",
        "from": "0xf39fd6e51aad88f6f4ce6ab8827279cfffb92266",
        "gas": "0x100be4",
        "value": "0x0",
        "data": "0x608060405234801561001057600080fd5b50604051610d23380380610d2383398101604081905261002f91610096565b3361003981610046565b50600180556002556100af565b600080546001600160a01b038381166001600160a01b0319831681178455604051919092169283917f8be0079c531659141344cd1fd0a4f28419497f9722a3daafe3b4186f6b6457e09190a35050565b6000602082840312156100a857600080fd5b5051919050565b610c65806100be6000396000f3fe60806040526004361061007f5760003560e01c80633ccfd60b1161004e5780633ccfd60b14610100578063715018a6146101155780638da5cb5b1461012a578063f2fde38b1461015657600080fd5b80630179ea881461008b57806324780c56146100ad5780632d296bf1146100cd578063305a67a8146100e057600080fd5b3661008657005b600080fd5b34801561009757600080fd5b506100ab6100a6366004610ad2565b610176565b005b3480156100b957600080fd5b506100ab6100c8366004610b09565b61026c565b6100ab6100db366004610b3e565b610515565b3480156100ec57600080fd5b506100ab6100fb366004610b3e565b6107f9565b34801561010c57600080fd5b506100ab61082c565b34801561012157600080fd5b506100ab610897565b34801561013657600080fd5b50600054604080516001600160a01b039092168252519081900360200190f35b34801561016257600080fd5b506100ab610171366004610b57565b6108ab565b600082815260036020526040902060018101548391906001600160a01b0316330361024d576000848152600360205260409020600581015460ff166101ce576040516304053c6d60e01b815260040160405180910390fd5b600085815260036020818152604092839020600401879055600284015491840154835189815233928101929092526001600160a01b03909216928101929092526060820152608081018590527fdc557241e44f27a1ec6123783db462470e759d5c69917b205f5d59d4f08b15fd9060a00160405180910390a150610266565b60405163ca033d5160e01b815260040160405180910390fd5b50505050565b600180549080600061027e8285610b91565b9091555061029e90506001600160a01b0385166380ac58cd60e01b6108eb565b6102bb5760405163053e701d60e21b815260040160405180910390fd5b6040516331a9108f60e11b815260048101849052849033906001600160a01b03831690636352211e90602401602060405180830381865afa158015610304573d6000803e3d6000fd5b505050506040513d601f19601f820116820180604052508101906103289190610ba4565b6001600160a01b03161461034f576040516330cd747160e01b815260040160405180910390fd5b60405163e985e9c560e01b81523360048201523060248201526001600160a01b0382169063e985e9c590604401602060405180830381865afa158015610399573d6000803e3d6000fd5b505050506040513d601f19601f820116820180604052508101906103bd9190610bc1565b6103da5760405163c19f17a960e01b815260040160405180910390fd5b826000036103fb5760405163905799f560e01b815260040160405180910390fd5b6040805160c0810182528381523360208083018281526001600160a01b038a8116858701908152606086018b8152608087018b8152600160a0890181815260008d81526003988990528b902099518a55955189820180549187166001600160a01b0319928316179055935160028a018054919096169416939093179093555193860193909355516004850155516005909301805493151560ff199094169390931790925591517f52ac1f237eb54827f2c077ce1a53146aa8d5b27546ff026a6252a5ea6b05ccb1926105069286928a918a918a91909586526001600160a01b03948516602087015292909316604085015260608401526080830191909152151560a082015260c00190565b60405180910390a15050505050565b600081815260036020818152604092839020835160c0810185528154815260018201546001600160a01b03908116938201939093526002820154909216938201939093529082015460608201526004820154608082015260059091015460ff16151560a082015261058582610910565b8060a001516105a7576040516304053c6d60e01b815260040160405180910390fd5b336001600160a01b031681602001516001600160a01b0316036105dd5760405163690a494f60e01b815260040160405180910390fd5b600061271060025483608001516105f49190610be3565b6105fe9190610bfa565b905060008183608001516106129190610c1c565b90508260800151341461063857604051638a0d377960e01b815260040160405180910390fd5b604051600090309084908381818185875af1925050503d806000811461067a576040519150601f19603f3d011682016040523d82523d6000602084013e61067f565b606091505b50509050600084602001516001600160a01b03168360405160006040518083038185875af1925050503d80600081146106d4576040519150601f19603f3d011682016040523d82523d6000602084013e6106d9565b606091505b505090508115806106e8575080155b1561070657604051635605f7bf60e01b815260040160405180910390fd5b604080860151602087015160608801519251632142170760e11b81526001600160a01b039182166004820152336024820152604481019390935216906342842e0e90606401600060405180830381600087803b15801561076557600080fd5b505af1158015610779573d6000803e3d6000fd5b505050507f65fae9ea01b99e68551f1d1a669686ffb55466271f2449ce2293d2e49ef01c4c86866040015187602001513389608001516040516107e99594939291909485526001600160a01b03938416602086015291831660408501529091166060830152608082015260a00190565b60405180910390a1505050505050565b600081815260036020526040902060018101548291906001600160a01b0316330361024d5761082783610910565b505050565b610834610998565b600080546040516001600160a01b039091169047908381818185875af1925050503d8060008114610881576040519150601f19603f3d011682016040523d82523d6000602084013e610886565b606091505b505090508061089457600080fd5b50565b61089f610998565b6108a960006109c5565b565b6108b3610998565b6001600160a01b0381166108e257604051631e4fbdf760e01b8152600060048201526024015b60405180910390fd5b610894816109c5565b60006108f683610a15565b801561090757506109078383610a48565b90505b92915050565b60008181526003602081905260408083208381556001810180546001600160a01b031990811690915560028201805490911690559182018390556004820192909255600501805460ff19169055517f411aee90354c51b1b04cd563fcab2617142a9d50da19232d888547c8a1b7fd8a9061098d9083815260200190565b60405180910390a150565b6000546001600160a01b031633146108a95760405163118cdaa760e01b81523360048201526024016108d9565b600080546001600160a01b038381166001600160a01b0319831681178455604051919092169283917f8be0079c531659141344cd1fd0a4f28419497f9722a3daafe3b4186f6b6457e09190a35050565b6000610a28826301ffc9a760e01b610a48565b801561090a5750610a41826001600160e01b0319610a48565b1592915050565b6040516001600160e01b031982166024820152600090819060440160408051601f19818403018152919052602080820180516001600160e01b03166301ffc9a760e01b178152825192935060009283928392909183918a617530fa92503d91506000519050828015610abb575060208210155b8015610ac75750600081115b979650505050505050565b60008060408385031215610ae557600080fd5b50508035926020909101359150565b6001600160a01b038116811461089457600080fd5b600080600060608486031215610b1e57600080fd5b8335610b2981610af4565b95602085013595506040909401359392505050565b600060208284031215610b5057600080fd5b5035919050565b600060208284031215610b6957600080fd5b8135610b7481610af4565b9392505050565b634e487b7160e01b600052601160045260246000fd5b8082018082111561090a5761090a610b7b565b600060208284031215610bb657600080fd5b8151610b7481610af4565b600060208284031215610bd357600080fd5b81518015158114610b7457600080fd5b808202811582820484141761090a5761090a610b7b565b600082610c1757634e487b7160e01b600052601260045260246000fd5b500490565b8181038181111561090a5761090a610b7b56fea264697066735822122050414af851d9ae04e3b4172ef57ad12dfcadd8b462d472732ae5ff9582e25a4464736f6c634300081400330000000000000000000000000000000000000000000000000000000000000064",
        "nonce": "0x1"
      },
      "additionalContracts": [],
      "isFixedGasLimit": false
    },
    {
      "hash": null,
      "transactionType": "CALL",
      "contractName": "RandomERC721",
      "contractAddress": "0x5FbDB2315678afecb367f032d93F642f64180aa3",
      "function": "transferFrom(address,address,uint256)",
      "arguments": [
        "0xf39Fd6e51aad88F6F4ce6aB8827279cffFb92266",
        "0x70997970C51812dc3A010C7d01b50e0d17dc79C8",
        "3"
      ],
      "transaction": {
        "type": "0x00",
        "from": "0xf39fd6e51aad88f6f4ce6ab8827279cfffb92266",
        "to": "0x5fbdb2315678afecb367f032d93f642f64180aa3",
        "gas": "0x15652",
        "value": "0x0",
        "data": "0x23b872dd000000000000000000000000f39fd6e51aad88f6f4ce6ab8827279cfffb9226600000000000000000000000070997970c51812dc3a010c7d01b50e0d17dc79c80000000000000000000000000000000000000000000000000000000000000003",
        "nonce": "0x2"
      },
      "additionalContracts": [],
      "isFixedGasLimit": false
    },
    {
      "hash": null,
      "transactionType": "CALL",
      "contractName": "RandomERC721",
      "contractAddress": "0x5FbDB2315678afecb367f032d93F642f64180aa3",
      "function": "transferFrom(address,address,uint256)",
      "arguments": [
        "0xf39Fd6e51aad88F6F4ce6aB8827279cffFb92266",
        "0x3C44CdDdB6a900fa2b585dd299e03d12FA4293BC",
        "4"
      ],
      "transaction": {
        "type": "0x00",
        "from": "0xf39fd6e51aad88f6f4ce6ab8827279cfffb92266",
        "to": "0x5fbdb2315678afecb367f032d93f642f64180aa3",
        "gas": "0x1433c",
        "value": "0x0",
        "data": "0x23b872dd000000000000000000000000f39fd6e51aad88f6f4ce6ab8827279cfffb922660000000000000000000000003c44cdddb6a900fa2b585dd299e03d12fa4293bc0000000000000000000000000000000000000000000000000000000000000004",
        "nonce": "0x3"
      },
      "additionalContracts": [],
      "isFixedGasLimit": false
    },
    {
      "hash": null,
      "transactionType": "CALL",
      "contractName": "RandomERC721",
      "contractAddress": "0x5FbDB2315678afecb367f032d93F642f64180aa3",
      "function": "transferFrom(address,address,uint256)",
      "arguments": [
        "0xf39Fd6e51aad88F6F4ce6aB8827279cffFb92266",
        "0x70997970C51812dc3A010C7d01b50e0d17dc79C8",
        "5"
      ],
      "transaction": {
        "type": "0x00",
        "from": "0xf39fd6e51aad88f6f4ce6ab8827279cfffb92266",
        "to": "0x5fbdb2315678afecb367f032d93f642f64180aa3",
        "gas": "0xe70a",
        "value": "0x0",
        "data": "0x23b872dd000000000000000000000000f39fd6e51aad88f6f4ce6ab8827279cfffb9226600000000000000000000000070997970c51812dc3a010c7d01b50e0d17dc79c80000000000000000000000000000000000000000000000000000000000000005",
        "nonce": "0x4"
      },
      "additionalContracts": [],
      "isFixedGasLimit": false
    },
    {
      "hash": null,
      "transactionType": "CALL",
      "contractName": "RandomERC721",
      "contractAddress": "0x5FbDB2315678afecb367f032d93F642f64180aa3",
      "function": "transferFrom(address,address,uint256)",
      "arguments": [
        "0xf39Fd6e51aad88F6F4ce6aB8827279cffFb92266",
        "0x3C44CdDdB6a900fa2b585dd299e03d12FA4293BC",
        "6"
      ],
      "transaction": {
        "type": "0x00",
        "from": "0xf39fd6e51aad88f6f4ce6ab8827279cfffb92266",
        "to": "0x5fbdb2315678afecb367f032d93f642f64180aa3",
        "gas": "0xf490",
        "value": "0x0",
        "data": "0x23b872dd000000000000000000000000f39fd6e51aad88f6f4ce6ab8827279cfffb922660000000000000000000000003c44cdddb6a900fa2b585dd299e03d12fa4293bc0000000000000000000000000000000000000000000000000000000000000006",
        "nonce": "0x5"
      },
      "additionalContracts": [],
      "isFixedGasLimit": false
    },
    {
      "hash": null,
      "transactionType": "CALL",
      "contractName": "RandomERC721",
      "contractAddress": "0x5FbDB2315678afecb367f032d93F642f64180aa3",
      "function": "setApprovalForAll(address,bool)",
      "arguments": [
        "0xe7f1725E7734CE288F8367e1Bb143E90bb3F0512",
        "true"
      ],
      "transaction": {
        "type": "0x00",
        "from": "0xf39fd6e51aad88f6f4ce6ab8827279cfffb92266",
        "to": "0x5fbdb2315678afecb367f032d93f642f64180aa3",
        "gas": "0x107aa",
        "value": "0x0",
        "data": "0xa22cb465000000000000000000000000e7f1725e7734ce288f8367e1bb143e90bb3f05120000000000000000000000000000000000000000000000000000000000000001",
        "nonce": "0x6"
      },
      "additionalContracts": [],
      "isFixedGasLimit": false
    },
    {
      "hash": null,
      "transactionType": "CALL",
      "contractName": "RandomERC721",
      "contractAddress": "0x5FbDB2315678afecb367f032d93F642f64180aa3",
      "function": "setApprovalForAll(address,bool)",
      "arguments": [
        "0xe7f1725E7734CE288F8367e1Bb143E90bb3F0512",
        "true"
      ],
      "transaction": {
        "type": "0x00",
        "from": "0x70997970c51812dc3a010c7d01b50e0d17dc79c8",
        "to": "0x5fbdb2315678afecb367f032d93f642f64180aa3",
        "gas": "0x107aa",
        "value": "0x0",
        "data": "0xa22cb465000000000000000000000000e7f1725e7734ce288f8367e1bb143e90bb3f05120000000000000000000000000000000000000000000000000000000000000001",
        "nonce": "0x0"
      },
      "additionalContracts": [],
      "isFixedGasLimit": false
    },
    {
      "hash": null,
      "transactionType": "CALL",
      "contractName": "RandomERC721",
      "contractAddress": "0x5FbDB2315678afecb367f032d93F642f64180aa3",
      "function": "setApprovalForAll(address,bool)",
      "arguments": [
        "0xe7f1725E7734CE288F8367e1Bb143E90bb3F0512",
        "true"
      ],
      "transaction": {
        "type": "0x00",
        "from": "0x3c44cdddb6a900fa2b585dd299e03d12fa4293bc",
        "to": "0x5fbdb2315678afecb367f032d93f642f64180aa3",
        "gas": "0x107aa",
        "value": "0x0",
        "data": "0xa22cb465000000000000000000000000e7f1725e7734ce288f8367e1bb143e90bb3f05120000000000000000000000000000000000000000000000000000000000000001",
        "nonce": "0x0"
      },
      "additionalContracts": [],
      "isFixedGasLimit": false
    },
    {
      "hash": null,
      "transactionType": "CALL",
      "contractName": "ObjectMarketplace",
      "contractAddress": "0xe7f1725E7734CE288F8367e1Bb143E90bb3F0512",
      "function": "createListing(address,uint256,uint256)",
      "arguments": [
        "0x5FbDB2315678afecb367f032d93F642f64180aa3",
        "0",
        "1000000000000000000"
      ],
      "transaction": {
        "type": "0x00",
        "from": "0xf39fd6e51aad88f6f4ce6ab8827279cfffb92266",
        "to": "0xe7f1725e7734ce288f8367e1bb143e90bb3f0512",
        "gas": "0x373db",
        "value": "0x0",
        "data": "0x24780c560000000000000000000000005fbdb2315678afecb367f032d93f642f64180aa300000000000000000000000000000000000000000000000000000000000000000000000000000000000000000000000000000000000000000de0b6b3a7640000",
        "nonce": "0x7"
      },
      "additionalContracts": [],
      "isFixedGasLimit": false
    },
    {
      "hash": null,
      "transactionType": "CALL",
      "contractName": "ObjectMarketplace",
      "contractAddress": "0xe7f1725E7734CE288F8367e1Bb143E90bb3F0512",
      "function": "createListing(address,uint256,uint256)",
      "arguments": [
        "0x5FbDB2315678afecb367f032d93F642f64180aa3",
        "1",
        "500000000000000000"
      ],
      "transaction": {
        "type": "0x00",
        "from": "0xf39fd6e51aad88f6f4ce6ab8827279cfffb92266",
        "to": "0xe7f1725e7734ce288f8367e1bb143e90bb3f0512",
        "gas": "0x3e59c",
        "value": "0x0",
        "data": "0x24780c560000000000000000000000005fbdb2315678afecb367f032d93f642f64180aa3000000000000000000000000000000000000000000000000000000000000000100000000000000000000000000000000000000000000000006f05b59d3b20000",
        "nonce": "0x8"
      },
      "additionalContracts": [],
      "isFixedGasLimit": false
    },
    {
      "hash": null,
      "transactionType": "CALL",
      "contractName": "ObjectMarketplace",
      "contractAddress": "0xe7f1725E7734CE288F8367e1Bb143E90bb3F0512",
      "function": "createListing(address,uint256,uint256)",
      "arguments": [
        "0x5FbDB2315678afecb367f032d93F642f64180aa3",
        "2",
        "250000000000000000"
      ],
      "transaction": {
        "type": "0x00",
        "from": "0xf39fd6e51aad88f6f4ce6ab8827279cfffb92266",
        "to": "0xe7f1725e7734ce288f8367e1bb143e90bb3f0512",
        "gas": "0x3e59c",
        "value": "0x0",
        "data": "0x24780c560000000000000000000000005fbdb2315678afecb367f032d93f642f64180aa3000000000000000000000000000000000000000000000000000000000000000200000000000000000000000000000000000000000000000003782dace9d90000",
        "nonce": "0x9"
      },
      "additionalContracts": [],
      "isFixedGasLimit": false
    },
    {
      "hash": null,
      "transactionType": "CALL",
      "contractName": "ObjectMarketplace",
      "contractAddress": "0xe7f1725E7734CE288F8367e1Bb143E90bb3F0512",
      "function": "createListing(address,uint256,uint256)",
      "arguments": [
        "0x5FbDB2315678afecb367f032d93F642f64180aa3",
        "3",
        "125000000000000000"
      ],
      "transaction": {
        "type": "0x00",
        "from": "0x70997970c51812dc3a010c7d01b50e0d17dc79c8",
        "to": "0xe7f1725e7734ce288f8367e1bb143e90bb3f0512",
        "gas": "0x3ae40",
        "value": "0x0",
        "data": "0x24780c560000000000000000000000005fbdb2315678afecb367f032d93f642f64180aa3000000000000000000000000000000000000000000000000000000000000000300000000000000000000000000000000000000000000000001bc16d674ec8000",
        "nonce": "0x1"
      },
      "additionalContracts": [],
      "isFixedGasLimit": false
    },
    {
      "hash": null,
      "transactionType": "CALL",
      "contractName": "ObjectMarketplace",
      "contractAddress": "0xe7f1725E7734CE288F8367e1Bb143E90bb3F0512",
      "function": "createListing(address,uint256,uint256)",
      "arguments": [
        "0x5FbDB2315678afecb367f032d93F642f64180aa3",
        "5",
        "1500000000000000000"
      ],
      "transaction": {
        "type": "0x00",
        "from": "0x70997970c51812dc3a010c7d01b50e0d17dc79c8",
        "to": "0xe7f1725e7734ce288f8367e1bb143e90bb3f0512",
        "gas": "0x3e59c",
        "value": "0x0",
        "data": "0x24780c560000000000000000000000005fbdb2315678afecb367f032d93f642f64180aa3000000000000000000000000000000000000000000000000000000000000000500000000000000000000000000000000000000000000000014d1120d7b160000",
        "nonce": "0x2"
      },
      "additionalContracts": [],
      "isFixedGasLimit": false
    },
    {
      "hash": null,
      "transactionType": "CALL",
      "contractName": "ObjectMarketplace",
      "contractAddress": "0xe7f1725E7734CE288F8367e1Bb143E90bb3F0512",
      "function": "createListing(address,uint256,uint256)",
      "arguments": [
        "0x5FbDB2315678afecb367f032d93F642f64180aa3",
        "4",
        "125000000000000000"
      ],
      "transaction": {
        "type": "0x00",
        "from": "0x3c44cdddb6a900fa2b585dd299e03d12fa4293bc",
        "to": "0xe7f1725e7734ce288f8367e1bb143e90bb3f0512",
        "gas": "0x3ae40",
        "value": "0x0",
        "data": "0x24780c560000000000000000000000005fbdb2315678afecb367f032d93f642f64180aa3000000000000000000000000000000000000000000000000000000000000000400000000000000000000000000000000000000000000000001bc16d674ec8000",
        "nonce": "0x1"
      },
      "additionalContracts": [],
      "isFixedGasLimit": false
    },
    {
      "hash": null,
      "transactionType": "CALL",
      "contractName": "ObjectMarketplace",
      "contractAddress": "0xe7f1725E7734CE288F8367e1Bb143E90bb3F0512",
      "function": "createListing(address,uint256,uint256)",
      "arguments": [
        "0x5FbDB2315678afecb367f032d93F642f64180aa3",
        "6",
        "1500000000000000000"
      ],
      "transaction": {
        "type": "0x00",
        "from": "0x3c44cdddb6a900fa2b585dd299e03d12fa4293bc",
        "to": "0xe7f1725e7734ce288f8367e1bb143e90bb3f0512",
        "gas": "0x3e59c",
        "value": "0x0",
        "data": "0x24780c560000000000000000000000005fbdb2315678afecb367f032d93f642f64180aa3000000000000000000000000000000000000000000000000000000000000000600000000000000000000000000000000000000000000000014d1120d7b160000",
        "nonce": "0x2"
      },
      "additionalContracts": [],
      "isFixedGasLimit": false
    },
    {
      "hash": null,
      "transactionType": "CALL",
      "contractName": "ObjectMarketplace",
      "contractAddress": "0xe7f1725E7734CE288F8367e1Bb143E90bb3F0512",
      "function": "updateListing(uint256,uint256)",
      "arguments": [
        "1",
        "750000000000000000"
      ],
      "transaction": {
        "type": "0x00",
        "from": "0xf39fd6e51aad88f6f4ce6ab8827279cfffb92266",
        "to": "0xe7f1725e7734ce288f8367e1bb143e90bb3f0512",
        "gas": "0xd6c4",
        "value": "0x0",
        "data": "0x0179ea8800000000000000000000000000000000000000000000000000000000000000010000000000000000000000000000000000000000000000000a688906bd8b0000",
        "nonce": "0xa"
      },
      "additionalContracts": [],
      "isFixedGasLimit": false
    },
    {
      "hash": null,
      "transactionType": "CALL",
      "contractName": "ObjectMarketplace",
      "contractAddress": "0xe7f1725E7734CE288F8367e1Bb143E90bb3F0512",
      "function": "updateListing(uint256,uint256)",
      "arguments": [
        "4",
        "1000000000000000000"
      ],
      "transaction": {
        "type": "0x00",
        "from": "0x70997970c51812dc3a010c7d01b50e0d17dc79c8",
        "to": "0xe7f1725e7734ce288f8367e1bb143e90bb3f0512",
        "gas": "0xd6c4",
        "value": "0x0",
        "data": "0x0179ea8800000000000000000000000000000000000000000000000000000000000000040000000000000000000000000000000000000000000000000de0b6b3a7640000",
        "nonce": "0x3"
      },
      "additionalContracts": [],
      "isFixedGasLimit": false
    },
    {
      "hash": null,
      "transactionType": "CALL",
      "contractName": "ObjectMarketplace",
      "contractAddress": "0xe7f1725E7734CE288F8367e1Bb143E90bb3F0512",
      "function": "updateListing(uint256,uint256)",
      "arguments": [
        "6",
        "500000000000000000"
      ],
      "transaction": {
        "type": "0x00",
        "from": "0x3c44cdddb6a900fa2b585dd299e03d12fa4293bc",
        "to": "0xe7f1725e7734ce288f8367e1bb143e90bb3f0512",
        "gas": "0xd6c4",
        "value": "0x0",
        "data": "0x0179ea88000000000000000000000000000000000000000000000000000000000000000600000000000000000000000000000000000000000000000006f05b59d3b20000",
        "nonce": "0x3"
      },
      "additionalContracts": [],
      "isFixedGasLimit": false
    },
    {
      "hash": null,
      "transactionType": "CALL",
      "contractName": "ObjectMarketplace",
      "contractAddress": "0xe7f1725E7734CE288F8367e1Bb143E90bb3F0512",
      "function": "cancelListing(uint256)",
      "arguments": [
        "2"
      ],
      "transaction": {
        "type": "0x00",
        "from": "0xf39fd6e51aad88f6f4ce6ab8827279cfffb92266",
        "to": "0xe7f1725e7734ce288f8367e1bb143e90bb3f0512",
        "gas": "0xe4e5",
        "value": "0x0",
        "data": "0x305a67a80000000000000000000000000000000000000000000000000000000000000002",
        "nonce": "0xb"
      },
      "additionalContracts": [],
      "isFixedGasLimit": false
    },
    {
      "hash": null,
      "transactionType": "CALL",
      "contractName": "ObjectMarketplace",
      "contractAddress": "0xe7f1725E7734CE288F8367e1Bb143E90bb3F0512",
      "function": "buyToken(uint256)",
      "arguments": [
        "5"
      ],
      "transaction": {
        "type": "0x00",
        "from": "0xf39fd6e51aad88f6f4ce6ab8827279cfffb92266",
        "to": "0xe7f1725e7734ce288f8367e1bb143e90bb3f0512",
        "gas": "0x1b3f1",
        "value": "0x14d1120d7b160000",
        "data": "0x2d296bf10000000000000000000000000000000000000000000000000000000000000005",
        "nonce": "0xc"
      },
      "additionalContracts": [],
      "isFixedGasLimit": false
    },
    {
      "hash": null,
      "transactionType": "CALL",
      "contractName": "ObjectMarketplace",
      "contractAddress": "0xe7f1725E7734CE288F8367e1Bb143E90bb3F0512",
      "function": "buyToken(uint256)",
      "arguments": [
        "6"
      ],
      "transaction": {
        "type": "0x00",
        "from": "0x70997970c51812dc3a010c7d01b50e0d17dc79c8",
        "to": "0xe7f1725e7734ce288f8367e1bb143e90bb3f0512",
        "gas": "0x1b3f1",
        "value": "0x6f05b59d3b20000",
        "data": "0x2d296bf10000000000000000000000000000000000000000000000000000000000000006",
        "nonce": "0x4"
      },
      "additionalContracts": [],
      "isFixedGasLimit": false
    },
    {
      "hash": null,
      "transactionType": "CALL",
      "contractName": "ObjectMarketplace",
      "contractAddress": "0xe7f1725E7734CE288F8367e1Bb143E90bb3F0512",
      "function": "buyToken(uint256)",
      "arguments": [
        "1"
      ],
      "transaction": {
        "type": "0x00",
        "from": "0x3c44cdddb6a900fa2b585dd299e03d12fa4293bc",
        "to": "0xe7f1725e7734ce288f8367e1bb143e90bb3f0512",
        "gas": "0x1a7db",
        "value": "0xa688906bd8b0000",
        "data": "0x2d296bf10000000000000000000000000000000000000000000000000000000000000001",
        "nonce": "0x4"
      },
      "additionalContracts": [],
      "isFixedGasLimit": false
    }
  ],
  "receipts": [],
  "libraries": [],
  "pending": [],
  "returns": {},
  "timestamp": 1693862547,
  "chain": 31337,
  "multi": false,
  "commit": "93eb596"
}